:100000000C9434000C94EC040C9451000C945100AA
:100010000C9451000C9451000C9451000C9451001C
:100020000C9451000C9451000C9451000C9451000C
:100030000C9451000C9451000C9451000C945100FC
:100040000C9451000C9451000C9451000C945100EC
:100050000C9451000C9451000C9451000C945100DC
:100060000C9451000C94510011241FBECFEFD4E02A
:10007000DEBFCDBF11E0A0E0B1E0E8E1F4E102C0F5
:1000800005900D92AE31B107D9F711E0AEE1B1E0C4
:1000900001C01D92A438B107E1F70E949E070C949D
:1000A0000A0A0C94000087E087B9E1E8F0E080815B
:1000B0008A608083EFE6F0E08081826080838AEF4F
:1000C0009FEF9093850080938400089520911E01F6
:1000D000233038F481E090E001C0880F2A95EAF7D8
:1000E00085B920911E01E22FF0E0EE0FFF1FE050D6
:1000F000FF4F80819181909389008093880081E0F7
:10010000820F893018F480931E01089510921E0109
:100110000895AC01465A5F4F20E137E2429FC0018B
:10012000439F900D529F900D112464EB70E00E944C
:100130007B084CEA5DE0649FC001659F900D749F51
:10014000900D112488519C4FB9010E947B08CB016E
:100150000895FC0160831282118214821382168238
:100160001582108617820895CF93DF93FC01C18119
:10017000D281238134812C1B3D0B45815681249FE4
:10018000C001259F900D349F900D112460E177E20E
:100190000E948F08CE01860F971FDF91CF9108959F
:1001A000EF92FF920F931F93CF93DF93EC017B01AC
:1001B0008A010E94B4009A838983FC82EB821E82AA
:1001C0001D8218870F83DF91CF911F910F91FF90B0
:1001D000EF9008950F931F93CF93DF93EC010D8160
:1001E0001E81B80180E090E00E94160820E030E413
:1001F0004CE156E40E94530887FD03C080E197E27A
:1002000004C08F819885800F911F9E838D83CE01BE
:100210000E94B4000E948900E881F0E0EE0FFF1F09
:10022000E050FF4F91838083DF91CF911F910F9119
:100230000895FB01DB019B01240F351F90E3A217FA
:10024000B30711F09D93FBCF538742871586148621
:10025000118A108A20E137E237872687828B148A39
:10026000138A168A158A108E178A128E118E089597
:10027000FC0122853385260F371F6217730729F08B
:10028000DB018D91BD018193F8CF0895CF92DF926C
:10029000EF92FF920F931F93CF93DF93EC010E85A4
:1002A0001F85E888F988E00EF11EB70180E090E034
:1002B0000E94160820E030E44CE156E40E94530806
:1002C0009E012E5E3F4F690187FF03C0F98AE88ACD
:1002D0004EC0198A188A8C859D8501969D878C87CA
:1002E0002A853B858217930710F01D861C86EC85B6
:1002F000FD85EC0FFD1F8081843419F188F4813471
:1003000041F130F4803399F5A80160E070E02CC031
:100310008234D9F0833459F5A80164E470E024C034
:100320008236D9F030F4813611F5A80169EE7FEFFD
:100330001BC08336B1F08436D1F4A80166EA7FEFA2
:1003400013C0A8016AE570E00FC0A8016DE270E07B
:100350000BC0A80167E170E007C0A80163ED7FEF63
:1003600003C0A8016CEB7FEFC6010E94D000C6015C
:10037000DF91CF911F910F91FF90EF90DF90CF9081
:100380000C94EA0084FF02C09CE201C090E194B9A1
:10039000982F90649CBD87FF01C0789408952A9897
:1003A00008952A9A08958EBD0DB407FEFDCF8EB52F
:1003B00008950E94CF018FEF0E94D3018093120114
:1003C0000C94D1018091120186FB882780F9089551
:1003D0008091120185FB882780F908958091120190
:1003E000829581700895809112018E70869508958E
:1003F0008091120181700895CF92DF92FF920F9346
:100400001F93CF93DF931F92CDB7DEB7082F162F20
:1004100099830E94CF0180EA0E94D301F02EC02E62
:100420009981D92E8C2D8F19811730F4F601819185
:100430006F010E94D301F6CF0E94D101812F90E07D
:100440000F90DF91CF911F910F91FF90DF90CF9090
:1004500008950E94CF0181EE0E94D3010C94D10136
:10046000CF92DF92FF920F931F93CF93DF931F9250
:10047000CDB7DEB7082F162F99830E94CF0181E6F2
:100480000E94D301F02EC02E9981D92E8C2D8F1968
:10049000811738F48FEF0E94D301F60181936F0129
:1004A000F5CF0E94D101812F90E00F90DF91CF9185
:1004B0001F910F91FF90DF90CF9008950E94CF0180
:1004C00082EE0E94D3010C94D1019EE0899FF0013D
:1004D0001124E15EFE4F81E090E024853585232BD9
:1004E00011F080E090E0089581E090E020917E019D
:1004F00030917F01232B11F080E090E00895EF927E
:100500000F931F939EE0899FD0011124A15EBE4FDF
:10051000FD01319611960C93119711832283338339
:1005200044835583668377831996EC92199781E00B
:100530008C9380E090E01F910F91EF900895299A9D
:1005400087E092E00197F1F700C000000895299834
:100550000895CF93DF931F92CDB7DEB789830E94B2
:10056000CF0189818F710E94D3018FEF0E94D30147
:1005700089830E94D10189810F90DF91CF910895E5
:100580009FEE980F963010F40C94A90280E0089525
:10059000DF92EF92FF920F931F93CF93DF93C82FB9
:1005A00081E18C0F0E94C002D82E8EE0C89FE0012E
:1005B0001124C15EDE4FEC84FD84E114F104B1F43A
:1005C0000E94CF0181E60E94D301C0E0CD1529F041
:1005D0008FEF0E94D301CF5FF9CFDF91CF911F91B1
:1005E0000F91FF90EF90DF900C94D1010D2D10E052
:1005F000E016F10698F4C8010E94DA088C016D2D0E
:100600000E943002A701B8018A859B850E94010AD9
:10061000C8010E9472091D861C8610C0EA84FB84F2
:100620006D2DC7010E943002E00EF11EFB86EA86A6
:100630008C859D85801B910B9D878C87DF91CF9149
:100640001F910F91FF90EF90DF90089587E10E9436
:10065000A90286FB882780F9089587E10E94A902F4
:1006600085FB882780F9089587E10E94A902829579
:100670008170089587E10E94A9028695817008958E
:1006800087E10E94A9028170089588E00E94A90272
:1006900082958F70089588E00E94A9028F70089556
:1006A0001F93CF93DF931F92CDB7DEB7182F88EE3D
:1006B000810F843088F069830E94CF01812F8F7170
:1006C00080620E94D3016981862F0E94D3010E941B
:1006D000D10180E090E002C08FEF9FEF0F90DF919B
:1006E000CF911F9108951F93CF93DF9300D0CDB783
:1006F000DEB7182F4A8369830E94A9026981962F69
:10070000909598234A816423962B692F812F0F900F
:100710000F90DF91CF911F910C94500341E0482737
:10072000419560E480E00E94730380E090E00895CA
:1007300041E04827419560E280E00E94730380E039
:1007400090E0089541E04827419560E180E00E94F3
:10075000730380E090E00895982F977F41F4482F2D
:1007600068E080E00E94730380E090E008958FEFDE
:100770009FEF0895982F9B7F41F4482F64E080E01D
:100780000E94730380E090E008958FEF9FEF08953B
:10079000CF93C82F8D7F69F44C2F62E00E947303C2
:1007A000C23051F48FE697E10197F1F700C00000E5
:1007B00003C08FEF9FEF02C080E090E0CF910895DB
:1007C000823040F4482F61E080E00E94730380E0B3
:1007D00090E008958FEF9FEF08959FEF980F92306C
:1007E00050F0843041F0883031F0803121F0803297
:1007F00011F08F3349F4462F4195682F81E00E9414
:10080000730380E090E008958FEF9FEF08959FEFCE
:10081000980F923050F0843041F0883031F08031C0
:1008200021F0803211F08F3349F4462F4195682F23
:1008300082E00E94730380E090E008958FEF9FEFC5
:1008400008959FEF980F933040F4482F63E083E0C2
:100850000E94730380E090E008958FEF9FEF08956A
:10086000803140F0482F60EF84E00E94730380E005
:1008700090E008958FEF9FEF0895803140F4482F66
:100880006FE084E00E94730380E090E008958FEFB2
:100890009FEF089587FD08C0482F6FE785E00E940D
:1008A000730380E090E008958FEF9FEF0895982FF5
:1008B000977F41F4482F68E086E00E94730380E050
:1008C00090E008958FEF9FEF0895982F997F41F45E
:1008D000482F66E086E00E94730380E090E0089570
:1008E0008FEF9FEF0895462F9FEE980F963030F4CC
:1008F0006FE30E94730380E090E008958FEF9FEF15
:1009000008954FEF60E487E00C9473034FEF60E2CB
:1009100087E00C947303DF92EF92FF920F931F9383
:10092000CF93DF9380917E0190917F01892B51F5C8
:100930000E94A70260E081E00E9407043FC0C091CE
:100940007E01D0917F012097B9F1D0907B010D2DD0
:1009500010E0C017D107D8F4C8010E94DA088C0152
:1009600060917C0170917D01AE010E94010A6D2DA4
:10097000C8010E94FC01C8010E94720910927F0107
:1009800010927E010E942D038823C9F215C0E090C9
:100990007C01F0907D016D2DC7010E94FC01E00EED
:1009A000F11EF0927D01E0927C01C01BD10BD0932F
:1009B0007F01C0937E01E6CF0E949F02DF91CF911D
:1009C0001F910F91FF90EF90DF900C9486044FEFF2
:1009D00060E187E00C9473031F920F920FB60F92A1
:1009E00011242F933F934F935F936F937F938F9334
:1009F0009F93AF93BF93CF93EF93FF930E94D9013F
:100A00000E94E80181110E948B040E94E201811181
:100A10000BC00E94EE018823C1F00E9445030E9492
:100A200029020E94E70411C0C1E00E944003811125
:100A3000F0CFC8B90E94D9010E94F301863010F4AA
:100A40000E94C8020E948104F0CFFF91EF91CF91E4
:100A5000BF91AF919F918F917F916F915F914F91D6
:100A60003F912F910F900FBE0F901F90189580E12E
:100A70000E94C201219A88E00E94AC0384E00E9497
:100A8000BA0383E00E94210460E08FE30E94070420
:100A900084E60E944A0480E00E94570486E00E9497
:100AA000650460E08FE30E94ED0383E00E943D0453
:100AB0000E9429020E945E020E9481040E94860414
:100AC0000E94E704E89AE9E6F0E080818C7F82608A
:100AD0008083789482E00E94C80380E090E00895CB
:100AE0006F927F929F92AF92BF92CF92DF92EF92DE
:100AF000FF920F931F93CF93DF931F92CDB7DEB773
:100B000089830E94CF0189818F710E94D301612C5A
:100B1000712C912CA12CB12CC12CD12CE12CF12CBD
:100B200010E08FEF0E94D301282F30E040E050E02A
:100B300060E070E080E090E0062D0E94A308922A19
:100B4000A32AB42AC52AD62AE72AF82A192B88E02C
:100B5000680E711CE8E26E16710419F70E94D1014B
:100B6000292D3A2D4B2D5C2D6D2D7E2D8F2D912F06
:100B70000F90DF91CF911F910F91FF90EF90DF9039
:100B8000CF90BF90AF909F907F906F90089596EF19
:100B9000980F973010F40C94700520E030E040E09E
:100BA00050E060E070E080E090E00895AF92BF9286
:100BB000CF92DF92EF92FF920F931F93CF93DF9329
:100BC00000D0CDB7DEB769017A01A62E28EE280F36
:100BD000243018F189837A830E94CF0189818F7133
:100BE00080620E94D30185E0B82E9A81802F9A837B
:100BF0000E94D3019801A601B7018A2D9A8108E0CD
:100C00000E94BE0889016A017B01A82EBA9471F77F
:100C10000E94D10180E090E002C08FEF9FEF0F9023
:100C20000F90DF91CF911F910F91FF90EF90DF9088
:100C3000CF90BF90AF9008950F931F9396EF980FAA
:100C4000973028F40E94D60580E090E002C08FEF34
:100C50009FEF1F910F9108958F929F92AF92BF9235
:100C6000CF92DF92EF92FF920F931F93CF93DF9378
:100C70001F92CDB7DEB76C017B01A42EB12C8EE0A4
:100C8000489F40011124D401A15EBE4F4D018C91BB
:100C9000882309F4C4C01C968D919C911D97892BC3
:100CA00009F0C0C049830E94A7024981423009F47B
:100CB00059C0F0F44423E9F1413009F0B6C04FEFD8
:100CC00062E082E00E947303F4013196D401119630
:100CD0000C91118122813381448155816681778114
:100CE0008BE00E94D605F40141856FE382E184C068
:100CF000443009F469C008F44EC0453009F095C08D
:100D00004FEF60E282E00E947303F4013196D40158
:100D100011960C9111812281338144815581668124
:100D200077818FE00E94D605F40141856FE386E16B
:100D300063C04FEF61E082E00E947303F4013196DB
:100D4000D40111960C911181228133814481558106
:100D5000668177818AE00E94D605F40141856FE3C0
:100D600081E14AC04FEF64E082E00E947303F40126
:100D70003196D40111960C911181228133814481E5
:100D80005581668177818CE00E94D605F40141850A
:100D90006FE383E131C04FEF68E082E00E947303AC
:100DA000F4013196D40111960C9111812281338185
:100DB00044815581668177818DE00E94D605F401DA
:100DC00041856FE384E118C04FEF60E182E00E944B
:100DD0007303F4013196D40111960C911181228193
:100DE000338144815581668177818EE00E94D605EA
:100DF000F40141856FE385E10E9473038EE08A9DD3
:100E0000F0018B9DF00D1124E15EFE4FD386C2866A
:100E1000F586E4860E949F0280E090E008C08FEF94
:100E20009FEF05C08EEF9FEF02C08DEF9FEF0F90F9
:100E3000DF91CF911F910F91FF90EF90DF90CF90B6
:100E4000BF90AF909F908F9008955F926F927F9226
:100E50008F929F92AF92BF92CF92DF92EF92FF92CA
:100E60000F931F93CF93DF937C01EB018EE0489F9C
:100E7000D0011124A15EBE4F8C91882309F449C092
:100E800080917E0190917F01892B09F045C0FD0181
:100E9000319611966C901197718082809380A48016
:100EA000B580C680D7806092730170927401809281
:100EB000750190927601A0927701B0927801C0926C
:100EC0007901D0927A0119965C9050927B0161E091
:100ED00081E00E94070483019401A501B6018AE024
:100EE0000E94D605652D8AE00E9473049401A50135
:100EF000B60180E10E94D605F0927D01E0927C016E
:100F0000D0937F01C0937E010E948B0480E090E02B
:100F100005C08FEF9FEF02C08EEF9FEFDF91CF9163
:100F20001F910F91FF90EF90DF90CF90BF90AF9007
:100F30009F908F907F906F905F900895CF93DF93F5
:100F4000CDB7DEB7EB970FB6F894DEBF0FBECDBFBF
:100F50008FEE90EA0197F1F700C0000060E070E0CA
:100F600080E090E00E94370580E2E82E07EA17EA69
:100F700027EA37EA47EA50E060E070E080E00E944C
:100F80007F0284E60E944A0481E00E94E003209AE6
:100F9000289A9FEF23ED80E3915020408040E1F7B5
:100FA00000C00000289844E050E0BE016F5D7F4F14
:100FB00080E00E94190188EE93E098AB8FA769E169
:100FC00071E0CE0181960E943801CE0181960E9487
:100FD000460180E00E946502892BF1F040E060E26A
:100FE00070E0CE0101960E942C0689818834A1F41C
:100FF0008A81853489F48B818C3471F48C818F34AF
:1010000059F4289A9FEF21EE84E0915020408040CF
:10101000E1F700C0000028989FEF21EE84E0915096
:1010200020408040E1F700C00000CFCFE89409C025
:1010300097FB3EF490958095709561957F4F8F4F0B
:101040009F4F9923A9F0F92F96E9BB279395F69521
:10105000879577956795B795F111F8CFFAF4BB0F9F
:1010600011F460FF1BC06F5F7F4F8F4F9F4F16C003
:10107000882311F096E911C0772321F09EE8872F8D
:10108000762F05C0662371F096E8862F70E060E049
:101090002AF09A95660F771F881FDAF7880F9695C2
:1010A000879597F9089503D008F48FEF0895990F65
:1010B0000008550FAA0BE0E8FEEF16161706E80722
:1010C000F907C0F012161306E407F50798F0621B43
:1010D000730B840B950B39F40A2661F0232B242B18
:1010E000252B21F408950A2609F4A140A6958FEF37
:1010F000811D811D0895AA1BBB1B51E107C0AA1FBA
:10110000BB1FA617B70710F0A61BB70B881F991FA8
:101110005A95A9F780959095BC01CD01089597FB4C
:10112000072E16F4009407D077FD09D00E947B08A3
:1011300007FC05D03EF4909581959F4F08957095DA
:1011400061957F4F08950F93083090F0982F872F67
:10115000762F652F542F432F322F22270850F4CF9C
:10116000220F331F441F551F661F771F881F991FAB
:101170000A95B2F70F91089597FB10F8169400089E
:101180000F93083098F00850232F342F452F562FF7
:10119000672F782F892F902DF4CF059497958795F9
:1011A0007795679557954795379527950A95AAF7A7
:1011B0000F910895CF93DF938230910510F482E070
:1011C00090E0E0918201F091830120E030E0A0E026
:1011D000B0E0309739F14081518148175907B8F094
:1011E0004817590771F482819381109729F013965B
:1011F0009C938E9312972CC09093830180938201CD
:1012000027C02115310531F04217530718F0A90105
:10121000DB0101C0EF019A01BD01DF010280F38112
:10122000E02DD7CF21153105F9F0281B390B2430DB
:10123000310580F48A819B816115710521F0FB01E4
:101240009383828304C09093830180938201FE0183
:10125000329644C0FE01E20FF31F81939193225016
:101260003109398328833AC020918001309181016E
:10127000232B41F420911501309116013093810107
:101280002093800120911301309114012115310523
:1012900041F42DB73EB74091170150911801241B1E
:1012A000350BE0918001F0918101E217F307A0F482
:1012B0002E1B3F0B2817390778F0AC014E5F5F4FAC
:1012C0002417350748F04E0F5F1F5093810140935C
:1012D00080018193919302C0E0E0F0E0CF01DF91C3
:1012E000CF910895CF93DF93009709F487C0FC0155
:1012F000329713821282C0918201D091830120978C
:1013000081F420813181280F391F809180019091D3
:1013100081018217930779F5F0938101E0938001B1
:101320006DC0DE0120E030E0AE17BF0750F412962A
:101330004D915C9113979D014115510509F1DA0119
:10134000F3CFB383A28340815181840F951F8A1705
:101350009B0771F48D919C911197840F951F0296B4
:101360009183808312968D919C91139793838283AE
:101370002115310529F4F0938301E09382013EC0E9
:10138000D9011396FC93EE9312974D915D91A40FA2
:10139000B51FEA17FB0779F480819181840F951FAF
:1013A0000296D90111969C938E9382819381139614
:1013B0009C938E931297E0E0F0E08A819B810097E6
:1013C00019F0FE01EC01F9CFCE0102962881398196
:1013D000820F931F209180013091810128173907D6
:1013E00069F4309729F4109283011092820102C0AF
:1013F00013821282D0938101C0938001DF91CF913B
:101400000895FB01DC0102C001900D924150504053
:08141000D8F70895F894FFCF0E
:10141800DC05DC05DC05DC05DC05DC05DC05DC05BC
:0E14280070170E000084012000304161410069
:00000001FF
